:100000000C947A000C949B000C949B000C949B0025
:100010000C949B000C949B000C949B000C949B00F4
:100020000C949B000C949B000C949B000C949B00E4
:100030000C949B000C949B000C949B000C949B00D4
:100040000C949B000C949B000C949B000C949B00C4
:100050000C949B000C949B000C949B000C949B00B4
:100060000C949B000C949B000C949B000C949B00A4
:100070000C949B000C949B000C949B000C949B0094
:100080000C949B000C949B000C949B000C949B0084
:100090000C949B000C949B000C949B000C949B0074
:1000A0000C949B000C949B000C949B000C949B0064
:1000B0000C949B000C949B000C949B000C949D0052
:1000C0000C949B000C949B000C949B000C949B0044
:1000D0000C949B000C949B000C949B000C949B0034
:1000E0000C949B000C94D6006364696E6F707375FA
:1000F00078585B0011241FBECFEFD1E2DEBFCDBF29
:1001000000E00CBF12E0A0E0B2E0E8E4F0E100E0C3
:100110000BBF02C007900D92AC31B107D9F722E0B6
:10012000ACE1B2E001C01D92A232B207E1F70E9439
:1001300029010C9422080C9400001F920F920FB614
:100140000F9211240F900FBE0F901F9018951092D0
:1001500020012DE02093210168EE73E00E949D01B3
:1001600029E03DE3629FC001639F900D729F900D57
:10017000112401979093290180932801F894E3E7D3
:10018000F0E0808182608083789408958DE0809390
:10019000800089E0809381001092890010928B008A
:1001A00010928D0081E080938C0008958A3049F090
:1001B0009091C00095FFFCCF8093C60080E090E056
:1001C00008959091C00095FFFCCF9DE09093C600EC
:1001D000EFCF9093C5008093C40086E08093C20067
:1001E00088E98093C10008959091C00095FFFCCFED
:1001F0008093C60008958091C00087FFFCCF809156
:10020000C60008958091C000881F8827881F089520
:10021000FC012081222351F031969091C00095FF7E
:10022000FCCF2093C60021912111F7CF089580E0E3
:1002300092E090931F0280931E021092C50082E309
:100240008093C40086E08093C20088E98093C10057
:100250000895CF93DF93CDB7DEB7C450D4400FB627
:10026000F894DEBF0FBECDBF0E9417018DE08093D2
:10027000800089E0809381001092890010928B00A9
:1002800010928D0081E080938C00279A8E010F5F81
:100290001F4F80E094E0F8019C0111922150304002
:1002A000E1F768010E94FB00F60181936F01811163
:1002B000F9CFCE018F5F9B4F9F938F9302969F93B1
:1002C0008F938EE092E09F938F931F930F930E94E2
:1002D000F4010FB6F894DEBF0FBECDBFF12CA12CF8
:1002E00084E0B82E97E1C92E92E0D92EF0928C00CE
:1002F000F8019501119221503040E1F780918C0076
:100300001F928F93DF92CF921F930F930E94C5018C
:10031000C8010E9408013FEF81EE94E03150804017
:100320009040E1F700C00000F394F3940F900F9019
:100330000F900F900F900F90D9CF97FB072E16F4C8
:10034000009407D077FD09D00E94B10107FC05D0C9
:100350003EF4909581959F4F0895709561957F4FDC
:100360000895AA1BBB1B51E107C0AA1FBB1FA617FC
:10037000B70710F0A61BB70B881F991F5A95A9F74E
:1003800080959095BC01CD0108950F931F93CF9355
:10039000DF93CDB7DEB72E970FB6F894DEBF0FBE52
:1003A000CDBF0E891F8986E08C831A8309838FEF66
:1003B0009FE79E838D83AE01465E5F4F688D798D8A
:1003C000CE0101960E941602EF81F885E00FF11F21
:1003D00010822E960FB6F894DEBF0FBECDBFDF9110
:1003E000CF911F910F910895CF93DF93CDB7DEB7D3
:1003F0002E970FB6F894DEBF0FBECDBF85E08C837D
:100400008C899D899A838983AE01485E5F4F6E898E
:100410007F89CE0101960E94DF052E960FB6F894D3
:10042000DEBF0FBECDBFDF91CF9108952F923F92D7
:100430004F925F926F927F928F929F92AF92BF92F4
:10044000CF92DF92EF92FF920F931F93CF93DF93A0
:10045000CDB7DEB72B970FB6F894DEBF0FBECDBF7A
:100460006C017B018A01FC0117821682838181FF66
:10047000CCC1CE0101963C01F6019381F70193FDB9
:10048000859193FF81917F01882309F4BAC1853258
:1004900039F493FD859193FF81917F01853229F491
:1004A000B60190E00E946C07E7CF912C212C312CF3
:1004B000FFE1F315D8F08B3279F038F4803279F01F
:1004C0008332A1F4232D20611DC08D3261F0803371
:1004D00069F4232D216016C0832D8260382EE32D10
:1004E000E4603E2E2AC0F32DF8601DC037FC2DC0FD
:1004F00020ED280F2A3040F08E32B9F436FC81C14D
:10050000232D2064322E19C036FE06C08AE0989E44
:10051000200D1124922E11C0EAE02E9E200D1124F0
:10052000222EF32DF0623F2E08C08C3621F4832D4D
:100530008068382E02C0883641F4F70193FD85911A
:1005400093FF81917F018111B3CF982F9F7D9554A7
:10055000933028F40C5F1F4F9FE399830DC08336BF
:1005600031F0833771F0833509F059C021C0F801AB
:10057000808189830E5F1F4F88248394912C5301BF
:1005800013C02801F2E04F0E511CF801A080B18089
:1005900036FE03C0692D70E002C06FEF7FEFC5012A
:1005A0000E9423074C018201F32DFF773F2E16C0D6
:1005B000280122E0420E511CF801A080B18036FED5
:1005C00003C0692D70E002C06FEF7FEFC5010E948C
:1005D00018074C01F32DF0683F2E820133FC1BC03D
:1005E000822D90E088169906B0F4B60180E290E082
:1005F0000E946C072A94F4CFF50137FC859137FEF1
:1006000081915F01B60190E00E946C0721102A944D
:1006100021E0821A91088114910471F7E8C08436B0
:1006200011F0893641F5F80137FE07C0608171810C
:10063000828193810C5F1F4F08C060817181072EFA
:10064000000C880B990B0E5F1F4FF32DFF763F2E8A
:1006500097FF09C090958095709561957F4F8F4F5A
:100660009F4FF0683F2E2AE030E0A3010E94C107AF
:10067000882E861845C0853731F4232D2F7EB22E63
:100680002AE030E025C0932D997FB92E8F36C1F036
:1006900018F4883579F0B5C0803719F0883721F023
:1006A000B0C0E92FE061BE2EB4FE0DC0FB2DF4609A
:1006B000BF2E09C034FE0AC0292F2660B22E06C004
:1006C00028E030E005C020E130E002C020E132E067
:1006D000F801B7FE07C060817181828193810C5F50
:1006E0001F4F06C06081718180E090E00E5F1F4F58
:1006F000A3010E94C107882E8618FB2DFF773F2E8D
:1007000036FE0DC0232D2E7FA22E891458F434FE00
:100710000BC032FC09C0832D8E7EA82E05C0B82CDC
:10072000A32C03C0B82C01C0B92CA4FE0FC0FE013D
:10073000E80DF11D8081803321F49A2D997EA92E38
:1007400009C0A2FE06C0B394B39404C08A2D867873
:1007500009F0B394A3FC11C0A0FE06C0B21488F443
:10076000280C922C9B180EC0B21460F4B60180E2E3
:1007700090E00E946C07B394F7CFB21418F42B18D2
:1007800002C0982C212CA4FE10C0B60180E390E09A
:100790000E946C07A2FE17C0A1FC03C088E790E08E
:1007A00002C088E590E0B6010CC08A2D867859F029
:1007B000A1FE02C08BE201C080E2A7FC8DE2B6017F
:1007C00090E00E946C07891438F4B60180E390E051
:1007D0000E946C079A94F7CF8A94F301E80DF11DFB
:1007E0008081B60190E00E946C078110F5CF222035
:1007F00009F442CEB60180E290E00E946C072A9490
:10080000F6CFF6018681978102C08FEF9FEF2B967E
:100810000FB6F894DEBF0FBECDBFDF91CF911F9111
:100820000F91FF90EF90DF90CF90BF90AF909F908F
:100830008F907F906F905F904F903F902F90089592
:1008400020FD09C0FC0123FD05C022FF02C0738307
:10085000628351834083089544FD17C046FD17C04D
:10086000AB01BC01DA01FB01AA0FBB1FEE1FFF1F8A
:100870001094D1F74A0F5B1F6E1F7F1FCB01BA0187
:10088000660F771F881F991F09C033E001C034E04D
:10089000660F771F881F991F3150D1F7620F711DA6
:1008A000811D911D08950F931F93CF93DF938C01AA
:1008B000C8010E942E07EC0197FD08C00E940407A2
:1008C000892BB1F7B801CE010E94A807CE01DF91B4
:1008D000CF911F910F9108958F929F92AF92BF92E7
:1008E000EF92FF920F931F93CF93DF938C01D62F3C
:1008F0007A01B22E0E942E079C0133272B3231053C
:1009000031F02D32310561F48B2D8068B82ED15035
:1009100011F480E068C0C8010E942E0797FDF9CF4E
:10092000CB2DCD7F2B2D207309F58033F9F4AA242C
:10093000AA94AD0E09F443C0C8010E942E0797FD8A
:100940003EC09C012F7D33272835310549F4C26410
:10095000D250A9F1C8010E942E0797FF07C02FC0EF
:10096000B6FE02C0C26001C0C261DA2D812C912C9A
:10097000540120ED280F283080F0C4FF04C0B801D6
:100980000E94A80719C02A3040F0C6FFF8CF2F7D7B
:100990003FEE320F363098F727504C2FC501B40187
:1009A0000E942C044B015C01C260D15059F0C80177
:1009B0000E942E0797FFDDCFC1FD04C0AACF812C76
:1009C000912C5401C7FF08C0B094A09490948094D7
:1009D000811C911CA11CB11C2C2FB501A401C701C5
:1009E0000E94200481E0DF91CF911F910F91FF9031
:1009F000EF90BF90AF909F908F9008955F926F920D
:100A00007F928F929F92AF92BF92CF92DF92EF929E
:100A1000FF920F931F93CF93DF93CDB7DEB7A097CD
:100A20000FB6F894DEBF0FBECDBF5C01962E7A01E3
:100A3000F9018E010F5F1F4F680180E2D8011D92FE
:100A40008A95E9F7D50113968C9080E090E0612CAF
:100A5000712C30E061E070E083FC259183FE2191F0
:100A60008F01522E211103C080E090E092C02E35FC
:100A700011F4009751F1432F50E0481759073CF407
:100A80002D3559F12D3219F4772009F103C0772063
:100A900009F46AC0452D469546954695D601A40FA2
:100AA000B11D452D47708B0102C0000F111F4A95E3
:100AB000E2F7A8015C91452B4C93651459F056144C
:100AC00010F45394E7CF5A94E5CF31E004C0772473
:100AD000739401C0712C0196BFCF772019F08E81DD
:100AE00080628E83311103C08824839417C0F6017D
:100AF0009E012F5D3F4F8081809581932E173F0788
:100B0000D1F7F2CFE114F10429F0D7018C93F7016A
:100B100031967F019A94812C9920F9F0C5010E94A9
:100B20002E0797FD18C0FC01FF2723E0F595E795F8
:100B30002A95E1F7EC0DFD1D208130E0AC014770F6
:100B4000552702C0359527954A95E2F720FDDACF63
:100B5000B5010E94A807811087CFE114F10411F0BC
:100B6000D7011C92C80115C0422F4695469546955F
:100B7000D601A40FB11D422F47708B0102C0000F98
:100B8000111F4A95E2F7A8015C91452B4C93622E08
:100B9000A2CFA0960FB6F894DEBF0FBECDBFDF91F7
:100BA000CF911F910F91FF90EF90DF90CF90BF906A
:100BB000AF909F908F907F906F905F9008955F921D
:100BC0006F927F928F929F92AF92BF92CF92DF925D
:100BD000EF92FF920F931F93CF93DF936C01EB0182
:100BE0005A01FC0117821682512CF601E380FE01A6
:100BF000E3FC8591E3FE8191182FEF01882309F42E
:100C0000EEC090E00E940407892B21F0C6010E94EB
:100C10005304EBCF153241F4FE01E3FC1591E3FEE2
:100C20001191EF01153281F4C6010E942E0797FD44
:100C3000D4C0412F50E09C01332724173507A9F277
:100C4000B6010E94A807CBC01A3239F4E3FC159113
:100C5000E3FE1191EF0101E001C000E0F12C20ED75
:100C6000210F2A3080F402606F2D70E080E090E068
:100C700040E20E942C04F62EFE01E3FC1591E3FEF7
:100C80001191EF01ECCF01FF03C0F11003C0A7C029
:100C9000FF24FA94183619F01C3651F010C0FE01EA
:100CA000E3FC1591E3FE1191EF01183641F4086061
:100CB0000460FE01E3FC1591E3FE1191EF011123A5
:100CC00009F48DC0612F70E088EE90E00E940D075E
:100CD000892B09F484C000FD07C0F5018080918054
:100CE000C50102965C0102C0812C912C1E3651F484
:100CF000F6014681578160E070E0202FC4010E9418
:100D0000200473CF1336A9F401FD02C0FF24F3942D
:100D1000C6010E942E0797FD60C08114910429F03E
:100D2000F4018083C40101964C01FA94F110F0CFD4
:100D300050C01B3559F49E01A4016F2DC6010E94BD
:100D4000FE04EC01892B09F044C03EC0C6010E949C
:100D5000530497FD42C01F3661F128F4143639F16F
:100D6000193651F128C0133771F0153701F123C03E
:100D70008114910429F0F4016082C40101964C01B0
:100D8000FA94FF2071F0C6010E942E073C0197FDE6
:100D900008C00E940407892B59F3B601C3010E94C1
:100DA000A80781149104A9F0F401108212C0006216
:100DB00003C0006101C00064202FA4016F2DC60193
:100DC0000E946C04811105C0F6018381807329F4AF
:100DD00006C000FD0ACF539408CF552019F0852D89
:100DE00090E002C08FEF9FEFDF91CF911F910F91A5
:100DF000FF90EF90DF90CF90BF90AF909F908F903B
:100E00007F906F905F90089591110C941F0880322D
:100E100019F089508550C8F70895FC010590061611
:100E200021F00020D9F7C00108953197CF0108952E
:100E3000FC010590615070400110D8F780959095A5
:100E40008E0F9F1F0895FC016150704001900110AA
:100E5000D8F7809590958E0F9F1F0895CF93DF93BD
:100E6000EC012B8120FF33C026FF0AC02F7B2B8390
:100E70008E819F8101969F838E838A8190E029C015
:100E800022FF0FC0E881F9818081082E000C990BA8
:100E9000009719F420622B831AC03196F983E883F6
:100EA0000EC0EA85FB85199597FF09C02B81019635
:100EB00011F080E201C080E1822B8B8308C02E817B
:100EC0003F812F5F3F4F3F832E83992702C08FEFD3
:100ED0009FEFDF91CF9108950F931F93CF93DF93EF
:100EE000FB01238121FD03C08FEF9FEF2CC022FF68
:100EF00016C046815781248135814217530744F437
:100F0000A081B1819D012F5F3F4F318320838C935E
:100F1000268137812F5F3F4F3783268314C08B0193
:100F2000EC01FB010084F185E02D1995892BE1F698
:100F3000D80116968D919C911797019617969C93C0
:100F40008E931697CE01DF91CF911F910F91089547
:100F5000FB01238120FF12C026FD10C08F3F3FEF11
:100F6000930761F082832F7D20642383268137815C
:100F70002150310937832683992708958FEF9FEFFA
:100F80000895FA01AA27283051F1203181F1E8941F
:100F90006F936E7F6E5F7F4F8F4F9F4FAF4FB1E06C
:100FA0003ED0B4E03CD0670F781F891F9A1FA11D67
:100FB000680F791F8A1F911DA11D6A0F711D811D68
:100FC000911DA11D20D009F468943F912AE0269F2D
:100FD00011243019305D3193DEF6CF010895462F8C
:100FE0004770405D4193B3E00FD0C9F7F6CF462F6D
:100FF0004F70405D4A3318F0495D31FD40524193D6
:1010000002D0A9F7EACFB4E0A69597958795779592
:101010006795BA95C9F700976105710508959B0119
:10102000AC010A2E06945795479537952795BA95A2
:10103000C9F7620F731F841F951FA01D089599277C
:0810400088270895F894FFCF02
:101048000000000200000000D60000000000256437
:0C1058002025642025640025640A0000A7
:00000001FF
